:100000000C9443000C9455000C9455000C9455002E
:100010000C9455000C9455000C9455000C9457000A
:100020000C9455000C9455000C9455000C945500FC
:100030000C9455000C9455000C9455000C945500EC
:100040000C9455000C9455000C9455000C945500DC
:100050000C9455000C9455000C9455000C945500CC
:100060000C9455000C94550005A84CCDB2D44EB953
:100070003836A9020C50B9918688083CA6AAAA2A4B
:10008000BE000000803F11241FBECFEFD8E0DEBFCE
:10009000CDBF22E0A0E0B1E001C01D92A130B207C7
:1000A000E1F70E9477000C94ED020C9400001F927F
:1000B0000F920FB60F9211248F93EF93FF93E0915D
:1000C000000181E08E0F80930001F0E0EF5FFE4FB2
:1000D000808180938800000085E08093B200FF91CA
:1000E000EF918F910F900FBE0F901F90189501E028
:1000F00011E0C0E0D0E0BE010D2E000C880B990B82
:100100000E9464012AED3FE049EC5CE30E94F001AB
:100110000E945D0220E030E04EEF52E40E94F001C8
:1001200020E030E040E053E40E94C0000E942C0137
:10013000F80161938F012196C115F1E0DF07D9F62F
:10014000219A81E080938100809180008068809373
:100150008000809180008160809380008091810088
:100160008860809381001092B00082E08093B1009B
:100170008093700082E18093B3007894FFCF505851
:10018000BB27AA270E94D7000C94B6010E94A801A1
:1001900038F00E94AF0120F039F49F3F19F426F4A3
:1001A0000C94A5010EF4E095E7FB0C949F01E92F58
:1001B0000E94C70158F3BA176207730784079507AF
:1001C00020F079F4A6F50C94E9010EF4E0950B2EDD
:1001D000BA2FA02D0B01B90190010C01CA01A00199
:1001E0001124FF27591B99F0593F50F4503E68F1F4
:1001F0001A16F040A22F232F342F4427585FF3CF35
:10020000469537952795A795F0405395C9F77EF405
:100210001F16BA0B620B730B840BBAF09150A1F04E
:10022000FF0FBB1F661F771F881FC2F70EC0BA0FD4
:10023000621F731F841F48F4879577956795B7955C
:10024000F7959E3F08F0B0CF9395880F08F0992757
:10025000EE0F9795879508950E9433016894B11128
:100260000C94EA0108950E94CF0188F09F5798F0FE
:10027000B92F9927B751B0F0E1F0660F771F881FAB
:10028000991F1AF0BA95C9F714C0B13091F00E94C5
:10029000E901B1E008950C94E901672F782F8827D0
:1002A000B85F39F0B93FCCF3869577956795B395EC
:1002B000D9F73EF490958095709561957F4F8F4F5B
:1002C0009F4F0895E89409C097FB3EF49095809560
:1002D000709561957F4F8F4F9F4F9923A9F0F92F0C
:1002E00096E9BB279395F695879577956795B7958A
:1002F000F111F8CFFAF4BB0F11F460FF1BC06F5F70
:100300007F4F8F4F9F4F16C0882311F096E911C081
:10031000772321F09EE8872F762F05C0662371F0A2
:1003200096E8862F70E060E02AF09A95660F771FB6
:10033000881FDAF7880F9695879597F9089597F9AA
:100340009F6780E870E060E008959FEF80EC08957B
:1003500000240A94161617061806090608950024A4
:100360000A9412161306140605060895092E03941E
:10037000000C11F4882352F0BB0F40F4BF2B11F492
:1003800060FF04C06F5F7F4F8F4F9F4F089557FDF1
:100390009058440F551F59F05F3F71F04795880FF3
:1003A00097FB991F61F09F3F79F08795089512168A
:1003B00013061406551FF2CF4695F1DF08C0161636
:1003C00017061806991FF1CF8695710561050894E7
:1003D0000895E894BB2766277727CB0197F90895FE
:1003E0000E9403020C94B6010E94A80138F00E94FA
:1003F000AF0120F0952311F00C949F010C94A501FE
:1004000011240C94EA010E94C70170F3959FC1F377
:10041000950F50E0551F629FF001729FBB27F00DB2
:10042000B11D639FAA27F00DB11DAA1F649F662707
:10043000B00DA11D661F829F2227B00DA11D621F56
:10044000739FB00DA11D621F839FA00D611D221F10
:10045000749F3327A00D611D231F849F600D211DF4
:10046000822F762F6A2F11249F5750409AF0F1F077
:1004700088234AF0EE0FFF1FBB1F661F771F881FE0
:1004800091505040A9F79E3F510580F00C949F0178
:100490000C94EA015F3FE4F3983ED4F38695779598
:1004A0006795B795F795E7959F5FC1F7FE2B880F86
:1004B000911D9695879597F908959F930E946702DD
:1004C0000F9007FCEE5F0C9490020C94A5010E9423
:1004D000CF01D8F3E894E0E0BB279F57F0F02AED76
:1004E0003FE049EC06C0EE0FBB0F661F771F881F69
:1004F00028F0B23A62077307840728F0B25A620BF9
:10050000730B840BE3959A9572F7803830F49A95C3
:10051000BB0F661F771F881FD2F790480C94A60266
:10052000EF93E0FF07C0A2EA2AED3FE049EC5FEB62
:100530000E94D7000E94B6010F90039401FC9058CE
:10054000E8E6F0E00C94B2029F3F31F0915020F4C5
:10055000879577956795B795880F911D969587959F
:1005600097F908959F938F937F936F93FF93EF93E2
:100570009B01AC010E94F001EF91FF910E94C60225
:100580002F913F914F915F910C94F001DF93CF93A6
:100590001F930F93FF92EF92DF927B018C0168947F
:1005A00006C0DA2EEF010E940302FE01E894A59135
:1005B0002591359145915591A6F3EF010E94D70001
:1005C000FE019701A801DA9469F7DF90EF90FF90A0
:0E05D0000F911F91CF91DF910895F894FFCF06
:00000001FF
