:100000000C9443000C9455000C9455000C9455002E
:100010000C9455000C9455000C9455000C9457000A
:100020000C9455000C9455000C9455000C945500FC
:100030000C9455000C9455000C9455000C945500EC
:100040000C9455000C9455000C9455000C945500DC
:100050000C9455000C9455000C9455000C945500CC
:100060000C9455000C94550005A84CCDB2D44EB953
:100070003836A9020C50B9918688083CA6AAAA2A4B
:10008000BE000000803F11241FBECFEFD8E0DEBFCE
:10009000CDBF23E0A0E0B1E001C01D92A230B207C5
:1000A000E1F70E9484000C94FB020C9400001F9264
:1000B0000F920FB60F9211242F933F938F939F931C
:1000C000EF93FF9380910001909101019C012F5FBC
:1000D0003F4F3093010120930001880F991FFC01CD
:1000E000EE5FFE4F808180938800000081E0809366
:1000F000B200FF91EF919F918F913F912F910F90BF
:100100000FBE0F901F90189502E011E0C0E0D0E004
:10011000BE010D2E000C880B990B0E9472012AED76
:100120003FE049EC5CE30E94FE010E946B0220E08C
:1001300030E04EEF52E40E94FE0120E030E040E06B
:1001400053E40E94CE000E943A01F801619371933A
:100150008F012196C115F1E0DF07D1F6219A81E0E8
:1001600080938100809180008068809380008091DE
:1001700080008160809380008091810088608093FE
:1001800081001092B00082E08093B10080937000F3
:1001900080E28093B3007894FFCF5058BB27AA2702
:1001A0000E94E5000C94C4010E94B60138F00E9440
:1001B000BD0120F039F49F3F19F426F40C94B301EB
:1001C0000EF4E095E7FB0C94AD01E92F0E94D501F8
:1001D00058F3BA17620773078407950720F079F47C
:1001E000A6F50C94F7010EF4E0950B2EBA2FA02D76
:1001F0000B01B90190010C01CA01A0011124FF27D4
:10020000591B99F0593F50F4503E68F11A16F040CE
:10021000A22F232F342F4427585FF3CF46953795CD
:100220002795A795F0405395C9F77EF41F16BA0B92
:10023000620B730B840BBAF09150A1F0FF0FBB1F40
:10024000661F771F881FC2F70EC0BA0F621F731F89
:10025000841F48F4879577956795B795F7959E3FE6
:1002600008F0B0CF9395880F08F09927EE0F979577
:10027000879508950E9441016894B1110C94F8018A
:1002800008950E94DD0188F09F5798F0B92F9927B3
:10029000B751B0F0E1F0660F771F881F991F1AF071
:1002A000BA95C9F714C0B13091F00E94F701B1E0DE
:1002B00008950C94F701672F782F8827B85F39F0DD
:1002C000B93FCCF3869577956795B395D9F73EF40A
:1002D00090958095709561957F4F8F4F9F4F0895B2
:1002E000E89409C097FB3EF49095809570956195D0
:1002F0007F4F8F4F9F4F9923A9F0F92F96E9BB2786
:100300009395F695879577956795B795F111F8CF01
:10031000FAF4BB0F11F460FF1BC06F5F7F4F8F4F6C
:100320009F4F16C0882311F096E911C0772321F062
:100330009EE8872F762F05C0662371F096E8862FFA
:1003400070E060E02AF09A95660F771F881FDAF751
:10035000880F9695879597F9089597F99F6780E894
:1003600070E060E008959FEF80EC089500240A9407
:100370001616170618060906089500240A94121680
:100380001306140605060895092E0394000C11F4B3
:10039000882352F0BB0F40F4BF2B11F460FF04C060
:1003A0006F5F7F4F8F4F9F4F089557FD9058440FB9
:1003B000551F59F05F3F71F04795880F97FB991FC4
:1003C00061F09F3F79F08795089512161306140681
:1003D000551FF2CF4695F1DF08C01616170618060E
:1003E000991FF1CF86957105610508940895E894E9
:1003F000BB2766277727CB0197F908950E94110242
:100400000C94C4010E94B60138F00E94BD0120F096
:10041000952311F00C94AD010C94B30111240C94AC
:10042000F8010E94D50170F3959FC1F3950F50E03C
:10043000551F629FF001729FBB27F00DB11D639F96
:10044000AA27F00DB11DAA1F649F6627B00DA11D3C
:10045000661F829F2227B00DA11D621F739FB00DE2
:10046000A11D621F839FA00D611D221F749F332752
:10047000A00D611D231F849F600D211D822F762FEB
:100480006A2F11249F5750409AF0F1F088234AF0C8
:10049000EE0FFF1FBB1F661F771F881F9150504034
:1004A000A9F79E3F510580F00C94AD010C94F80122
:1004B0005F3FE4F3983ED4F3869577956795B795BB
:1004C000F795E7959F5FC1F7FE2B880F911D9695D5
:1004D000879597F908959F930E9475020F9007FCE6
:1004E000EE5F0C949E020C94B3010E94DD01D8F3E0
:1004F000E894E0E0BB279F57F0F02AED3FE049EC9D
:1005000006C0EE0FBB0F661F771F881F28F0B23A98
:1005100062077307840728F0B25A620B730B840BCF
:10052000E3959A9572F7803830F49A95BB0F661F61
:10053000771F881FD2F790480C94B402EF93E0FF26
:1005400007C0A2EA2AED3FE049EC5FEB0E94E5001C
:100550000E94C4010F90039401FC9058E8E6F0E07B
:100560000C94C0029F3F31F0915020F4879577950D
:100570006795B795880F911D9695879597F908957A
:100580009F938F937F936F93FF93EF939B01AC01A6
:100590000E94FE01EF91FF910E94D4022F913F91A2
:1005A0004F915F910C94FE01DF93CF931F930F93B4
:1005B000FF92EF92DF927B018C01689406C0DA2EE5
:1005C000EF010E941102FE01E894A5912591359159
:1005D00045915591A6F3EF010E94E500FE019701B8
:1005E000A801DA9469F7DF90EF90FF900F911F91C7
:0A05F000CF91DF910895F894FFCF3A
:00000001FF
